:100000000C9463020C94AA020C94AA020C94AA0207
:100010000C94AA020C94AA020C94AA020C94AA02B0
:100020000C94AA020C94AA020C949B130C946D14C9
:100030000C94A9220C94AA020C94AA020C94AA0271
:100040000C94AA020C94A4290C94AA020C94AA025F
:100050000C94AA020C944C220C94AA020C94AA02AE
:100060000C94AA020C94AA020C94AA020C94AA0260
:100070000C94AA020C94AA020C94AA020C94AA0250
:100080000C94AA020C94AA020C94AA020C94AA0240
:100090000C94AA020C94AA020C94AA020C94AA0230
:1000A0000C94AA020C94AA020C94AA02D603DB03B5
:1000B0000104FD030F040B041D041904DA14FC14DD
:1000C000EA15FC14EA1541156415EA15B915CC15A5
:1000D0001B181B1849184918A518C318371B371BBC
:1000E000E518371BE019E0199B1AB11A371B231BBF
:1000F00029141A0815171C180C12137C041607096A
:100100000A0B0D0E0F28791D1B0619051110363725
:100110007D787B7A807E2C8050514F2A00EF8000C2
:100120006E645A503C32281E140A968C82786E6493
:100130005A50463C32281E14783C1E1E140A0500F4
:100140000000000101010202030405050607090A77
:100150000B0C0E0F1112141517191B1D1F2123252F
:10016000282A2C2F313436393B3E414346494C4FE7
:100170005255585A5D6164676A6D707376797C7FF9
:100180008386898C8F9295989B9EA2A5A7AAADB0D5
:10019000B3B6B9BCBEC1C4C6C9CBCED0D3D5D7DAED
:1001A000DCDEE0E2E4E6E8EAEBEDEEF0F1F3F4F5B4
:1001B000F6F8F9FAFAFBFCFDFDFEFEFEFFFFFFFF7D
:1001C000FFFFFFFEFEFEFDFDFCFBFAFAF9F8F6F577
:1001D000F4F3F1F0EEEDEBEAE8E6E4E2E0DEDCDA9F
:1001E000D7D5D3D0CECBC9C6C4C1BEBCB9B6B3B0C7
:1001F000ADAAA7A5A29E9B9895928F8C8986838095
:100200007C797673706D6A6764615D5A5855524F98
:100210004C494643413E3B393634312F2C2A282560
:1002200023211F1D1B1917151412110F0E0C0B0A79
:100230000907060505040302020101010000000C84
:100240000344006100690073007900000012034B51
:10025000002E0054002E0045002E0043002E00000A
:10026000000403090409026D00040100A03209041E
:1002700000000103010100092111010001224000D9
:1002800007058103080001090401000103010200C0
:10029000092111010001224D000705820308000A0F
:1002A00009040200010300000009211101000122DC
:1002B0001B000705830308000A090403000103006B
:1002C00000000921110100012239000705840320E3
:1002D0000001120110010000000809122823000586
:1002E0000102000105010906A101050719E029E73E
:1002F00015002501950875018102050819012905D8
:100300009505750191029501750391010507190085
:1003100029F71500250195F875018102C0050C0922
:1003200001A1018503160100269C021A01002A9CE6
:1003300002751095018100C005010902A1010901A2
:10034000A10005091901290515002501950575016B
:10035000810295017503810105010930093115817B
:10036000257F95027508810609381581257F95013D
:1003700075088106050C0A38021581257F950175DF
:10038000088106C0C005010906A101050719E02979
:10039000E715002501950875018102950175088111
:1003A0000105081901290595057501910295017549
:1003B0000391010507190029FF150026FF00950686
:1003C00075088100C000000000000000000000016E
:1003D00001010202020303040405050606070808DA
:1003E000090A0B0B0C0D0E0F10111213151617190D
:1003F0001A1B1D1E2022232527292B2D2F31333593
:10040000383A3D3F4244474A4D505356595C5F622B
:1004100066696C7074777B7E82868A8E9195999DD1
:10042000A1A5A9ADB0B4B8BCC0C3C7CBCED2D5D8F6
:10043000DBDFE2E4E7EAECEFF1F3F5F7F8FAFBFCD7
:10044000FDFEFFFFFFFFFFFFFFFEFDFCFBFAF8F7DD
:10045000F5F3F1EFECEAE7E4E2DFDBD8D5D2CECB7F
:10046000C7C3C0BCB8B4B0ADA9A5A19D9995918EE4
:100470008A86827E7B7774706C6966625F5C59568F
:1004800053504D4A4744423F3D3A383533312F2D82
:100490002B2927252322201E1D1B1A191716151379
:1004A0001211100F0E0D0C0B0B0A09080807060697
:1004B000050504040303020202010101000000001B
:1004C00000000000000011241FBECFEFDAE0DEBF05
:1004D000CDBF04B603FE27C08091C3029091C40231
:1004E000A091C502B091C6028730904BA740B04B97
:1004F000D1F41092C3021092C4021092C50210925D
:10050000C60214BE84B7877F84BF0FB6F894A8953F
:1005100080916000886180936000109260000FBE3F
:10052000E0E0F8E3099511E0A0E0B1E0E2EEF8E5E3
:1005300002C005900D92AE33B107D9F722E0AEE3C9
:10054000B1E001C01D92A33CB207E1F70E943C0F4D
:100550000C946F2C0C9400000FB680959AE0F894E0
:100560007AE57A95F1F708F0299A08F429988695A2
:100570009A95B1F70FBE08952BE0929FF0011124D8
:10058000E80FF11DE051FF4F9491892F8F709295E4
:100590009F700895CF93C82FCB010E94BC02282FD3
:1005A00030E080E1989FA0011124422B532B40386A
:1005B000510519F480E090E021C09770E92FF0E038
:1005C00088E0C89FE00DF11D112484E0EE0FFF1FAD
:1005D0008A95E1F7E20FF31FEE0FFF1FE050F84995
:1005E00025913491C9018B7F833E910531F480912F
:1005F0004101882311F020E030E0C901CF91089536
:100600000F931F93CF938C01C62F623009F471C0F2
:1006100028F4662301F1613069F0B7C0FC018281E2
:100620006C3009F49CC06D3009F4A7C06B3009F040
:10063000ACC081C0FC018281882309F453C00E94B0
:100640006E2181FF06C00E946E2180FD02C085E3FD
:1006500042C089E240C0423009F148F4442389F0A5
:10066000413061F584E380933E0188E225C0443047
:10067000F9F0C8F0453011F581E380933E018AE23C
:100680001BC00E946E2182FF02C08DE301C089E27F
:1006900080933F0185E380933E0110C088E38093FF
:1006A0003E0187E309C088E380933E0182E504C0F0
:1006B00083E380933E018FE080933F01F8018281C4
:1006C000882381F00E946E2185FF03C080913E0146
:1006D00002C080913F0180934001809140010E94BF
:1006E0004D1704C0809140010E94A5170E94AB21C4
:1006F0004CC0FC0182818823F1F00E946E2180FFB2
:100700000DC00E94541BFFEF20E782E0F150204013
:100710008040E1F700C000000E9472228FEF0E942B
:1007200071210E94AB218FEF0E9477210E94AB21A3
:100730000E94541B2AC0F8018281882331F19091D4
:10074000410181E0892780934101882319F081E0EC
:1007500090E002C080E090E00E94B50616C08823B9
:10076000A1F080918001882321F0109280012B98C4
:100770000CC081E08093800108C0882331F0909103
:10078000730181E0892780937301F80182818823B6
:1007900009F45DC08C2F90E0FC013397E830F1053F
:1007A00008F055C0EA5AFF4F0C94142CCF911F91BA
:1007B0000F910C94960A0E946E2181FF19C09091AE
:1007C0009402892F8695815C8F739178882319F024
:1007D000880F892B02C0892F8263809394028091B5
:1007E000940286958F73CF911F910F910C94090AF3
:1007F000CF911F910F910C94490A0E946E2181FFA5
:1008000005C0CF911F910F910C948009CF911F913A
:100810000F910C9468090E946E2181FF05C0CF9151
:100820001F910F910C94BA09CF911F910F910C94C5
:100830009F090E946E2181FF05C0CF911F910F91EA
:100840000C94EF09CF911F910F910C94D409CF9183
:100850001F910F91089527988AB1837D8AB90895D1
:1008600080E885BF85BF0E94530A0E942B0480B395
:100870008C7080BB81B3836F81BB8AB18F738AB95F
:100880008BB1806C8BB984B18F7884B985B1806766
:1008900085B9AAE4B1E011961C921E92E2E4F1E05F
:1008A0001182108213961C921E921297138212824A
:1008B00015961C921E9214971582148217961C92FC
:1008C0001E921697178216820895FF920F931F9318
:1008D000CF93DF93C2E4D1E010E001E0E5E0FE2E2B
:1008E000123041F0133041F0113011F0529A05C02E
:1008F000539A03C0559A01C0279A80EA8A95F1F766
:100900008FB18170802790E0799903C022E030E0B8
:1009100002C020E030E0822B932B7C9903C064E07E
:1009200070E002C060E070E0862B972B7D9903C0D9
:1009300068E070E002C060E070E0862B972B7E9943
:1009400003C020E130E002C020E030E0AC01422BE7
:10095000532B2FB1022E000C330B20953095C9017B
:100960008827990F881F992775E0880F991F7A9516
:10097000E1F7842B952B1E9903C060E470E002C060
:1009800060E070E0862B972B1D9903C060E870E053
:1009900002C060E070E0862B972B1C9903C020E01A
:1009A00031E002C020E030E0AC01422B532B29B1F2
:1009B000022E000C330B20953095C9018827990F22
:1009C000881F9927982F8827990F842B952B4E994C
:1009D00003C020E034E002C020E030E0822B932B03
:1009E000288139812817390721F099838883F0926B
:1009F00000010E942B041F5F2296143009F070CF73
:100A000080910001882361F1815080930001882347
:100A100039F08FE99FE00197F1F700C0000020C096
:100A2000809142019091430190934B0180934A0140
:100A3000809144019091450190934D0180934C0128
:100A4000809146019091470190934F0180934E0110
:100A500080914801909149019093510180935001F8
:100A600081E0DF91CF911F910F91FF900895E82FC2
:100A7000F0E0EE0FFF1FE65BFE4F8081918108954D
:100A800008953E9A469A519A599AA2E5B1E080E0BB
:100A9000E82FE695F0E0E659FF4FFE2FEE27282FCE
:100AA000217030E0E20FF31F459154914D938F5F19
:100AB000883071F708959091940290FD4EC0843073
:100AC00099F178F48230D1F1833009F046C08FEF8C
:100AD0008093AC028093AF028093B20280939D0218
:100AE00036C0863069F0B0F08730B9F58FEF80936B
:100AF000AD028093B0028093B30280939E0227C020
:100B00008FEF8093A1028093A4028093A702809329
:100B1000AA021DC08FEF8093AB028093AE02809338
:100B2000B10280939C0213C08FEF80939F02809349
:100B3000A2028093A5028093A80209C08FEF809340
:100B4000A0028093A3028093A6028093A90268E08A
:100B500070E08CE992E00C941708882319F081303A
:100B600019F008954698089559980895909194021F
:100B700090FD48C0843079F170F48230A9F183305F
:100B800009F040C01092AC021092AF021092B20273
:100B900010929D0231C0863061F0A0F0873091F54F
:100BA0001092AD021092B0021092B30210929E0207
:100BB00023C01092A1021092A4021092A7021092D8
:100BC000AA021AC01092AB021092AE021092B102A9
:100BD00010929C0211C010929F021092A2021092D9
:100BE000A5021092A80208C01092A0021092A302BF
:100BF0001092A6021092A90268E070E08CE992E0DF
:100C00000C941708882319F0813019F00895469A3A
:100C10000895599A0895EF92FF920F931F93CF93DF
:100C200092E5E92E91E0F92EC0E0082F10E0F701DF
:100C300091917F0180EF890F833078F4980102C091
:100C4000359527958A95E2F720FF04C08C2F0E94E6
:100C50005B0503C08C2F0E94B605CF5FC83039F703
:100C6000CF911F910F91FF90EF9008958F929F92D7
:100C7000AF92BF92EF92FF920F931F93CF934B01CE
:100C80005C0102E511E0C0E0EE24E394F12CF801F0
:100C900081918F019FEF980F9730D0F4970102C098
:100CA000220F331F8A95E2F7C901092E000CAA0B07
:100CB000BB0B88219921AA21BB21892B8A2B8B2B45
:100CC00021F08C2F0E945B0503C08C2F0E94B6057B
:100CD000CF5FC830E1F6CF911F910F91FF90EF9059
:100CE000BF90AF909F908F9008958F929F92AF92F8
:100CF000BF92EF92FF920F931F93CF934B015C0132
:100D000002E511E0C0E0EE24E394F12CF8018191BA
:100D10008F0197EF980F9730D8F48850970102C051
:100D2000220F331F8A95E2F7C901092E000CAA0B86
:100D3000BB0B88219921AA21BB21892B8A2B8B2BC4
:100D400021F08C2F0E945B0503C08C2F0E94B605FA
:100D5000CF5FC830D9F6CF911F910F91FF90EF90E0
:100D6000BF90AF909F908F900895EF92FF920F9356
:100D70001F93CF9392E5E92E91E0F92EC0E0082F62
:100D800010E0F70191917F018BEE890F883078F4A4
:100D9000980102C0359527958A95E2F720FF04C097
:100DA0008C2F0E945B0503C08C2F0E94B605CF5F7D
:100DB000C83039F7CF911F910F91FF90EF900895B0
:100DC000F894509A84B5816284BD85B5836085BDF1
:100DD00078940895509818BC0895CF93C82F0E9416
:100DE0009529C73088F4C430C8F4C13018F1109286
:100DF000930210925E010E94E006EC2FF0E0E45EA8
:100E0000FE4FE491E8BD19C0C930A0F40E94E0068D
:100E10001092930281E080935E010FC081E0809385
:100E2000930210925E010E94E00687E08C1BCF9136
:100E30000C94A129CF910C94EA06CF91089588BD16
:100E400008951F93CF93DF9300D000D01F92CDB7AA
:100E5000DEB7162F0E94EA21609378017093790122
:100E600080937A0190937B018091C20280FF18C029
:100E70008E7F8E3049F4112399F080915D018A5064
:100E80008A3060F48AE00AC0803151F4112341F0C5
:100E900080915D01865F873708F086E780935D016A
:100EA0008091940280FF0FC08E778A3211F08233D6
:100EB00051F4112341F080915C018F5F8C3108F077
:100EC0008BE180935C010F900F900F900F900F902B
:100ED000DF91CF911F9108950E94FC0C80919402A4
:100EE00080FF2BC08E778A3211F0823331F59091DA
:100EF0005B019F5F90935B018A3239F480915C01C2
:100F000080FF81500E94800B0BC0823349F4809196
:100F10005C019BEA899F812D112486950E94110C0A
:100F200080915B018F3148F010925B0180915C01F0
:100F3000815009F481E080935C0180915E018823F7
:100F400021F180915A018F5F863018F480935A0105
:100F5000089510925A01E0915D01F0E0EB53FC4FCF
:100F6000E491E8BD8091C2028E7F8E3039F4809189
:100F70005D018F5F813838F080E805C0803129F449
:100F800080915D01815080935D01089550980E9489
:100F90009B2940E060E080E00C94BC080895219A11
:100FA000239A2B9822982A9A089583B182FB882746
:100FB00080F9089585B183FB882780F991E089271E
:100FC00008952B9A08952B98089528B1342F3095C1
:100FD000232338B1432B3FB7F894FC01680F791FE6
:100FE000E617F70789F0819198E048B9000000C042
:100FF00087FF28B9880F000000C000C000C028B9D2
:1010000000C09A9591F7ECCF3FBF089527B1242BEC
:1010100027B99B01220F331F620F731F0E94E50740
:1010200087EC90E00197F1F700C00000089540E8D8
:101030000C940608EF92FF920F931F93CF93DF93C8
:1010400000D000D01F92CDB7DEB7062F142F790144
:10105000443008F414E0BC0180E090E00E94C82A0B
:1010600022E133E848E050E40E94572B0E94992A7D
:10107000E12FF0E0DB01BB27202F30E0A29FA00191
:10108000A39F500DB29F500D1124452F5527E49F6B
:10109000D001E59FB00DF49FB00D112440E051E068
:1010A000421B530B4E9F90014F9F300D5E9F300DA2
:1010B00011243C833983232F2B0F2D832A831B1B61
:1010C0001B83872F992763E070E00E94EC2BFE01C1
:1010D000E80FF91F3281FE01E80FF91F2181FE019F
:1010E000E80FF91F8381F7018183308322830F90FA
:1010F0000F900F900F900F90DF91CF911F910F9154
:10110000FF90EF9008958AE090E00C94222CAB01C0
:10111000BC018AE090E00C94402CE4E9F2E08DE917
:101120008083A5E9B2E08C918078866180688C9399
:101130008FEF8283838360919402709195028091F6
:101140009602909197020C9487088091940280FFF8
:1011500006C068E070E08CE992E00C94170880E02B
:1011600090E0FC01E456FD4F11821082128203963A
:1011700088319105B1F7EDCF20E030E0F901E45678
:10118000FD4F8183608342832D5F3F4F28313105BE
:10119000A9F70C94A508EF92FF920F931F93CF939A
:1011A000DF9300D01F92CDB7DEB70091940210916B
:1011B0009502209196023091970200939802109325
:1011C000990220939A0230939B022091940220FF6F
:1011D00021C0042FF62EE92E182F9E012F5F3F4FBE
:1011E0000E941A088091980210FB87F98093980258
:1011F0001695809199028078182BE0FA17F91093D0
:101200009902F0929A0200939B024B8169818A8134
:101210000E94BC080F900F900F90DF91CF911F910B
:101220000F91FF90EF9008950F931F93CF93DF934B
:10123000EC01062F142F9091940290FF44C0892F47
:101240008E77823021F4CE010E94CB081BC0892FFB
:1012500086958F732EE3280F2F73243018F4109186
:10126000970210C0865C8F73893060F4C92FCC1F41
:10127000CC27CC1FD09195028D2F880FC82BD7FB80
:10128000DD27D0F980919402C0FB87F98093940206
:10129000C695809195028078C82BD0FBC7F9C09382
:1012A00095020093960210939702609194027091B8
:1012B00095028091960290919702DF91CF911F91B4
:1012C0000F910C948708DF91CF911F910F91089592
:1012D000E4E9F2E02081221F2227221F30919502AB
:1012E000432F440F842F822B37FB992790F90A96BE
:1012F00068E671E00E94002C438162810C9414091D
:1013000020919402221F2227221F30919502432F01
:10131000440F842F822B37FB992790F98A3091054F
:101320001CF4825A9E4F01C00A9768E671E00E9441
:10133000002C40919702609196020C9414096091E0
:101340009602862F90E08F3E910514F46F5E01C0E7
:101350006FEF80919402881F8827881F90919502D3
:10136000292F220F97FB992790F940919702822B02
:101370000C94140960919602862F90E0419714F026
:10138000615101C060E080919402881F8827881F06
:1013900090919502292F220F97FB992790F9409160
:1013A0009702822B0C94140940919702842F90E0AD
:1013B0008F3E910514F44F5E01C04FEF809194026F
:1013C000881F8827881F90919502292F220F97FB4D
:1013D000992790F960919602822B0C941409409100
:1013E0009702842F90E0419714F0415101C040E0F2
:1013F00080919402881F8827881F90919502292F39
:10140000220F97FB992790F960919602822B0C94FA
:1014100014099091940290FF3BC09178811102C011
:10142000926007C08A3110F0926303C08F73880FF7
:10143000982B909394026091940270919502809100
:101440009602909197020E94870880919402982FAB
:101450009E77923019F41092700109C0982F9695DA
:10146000925C9F73963118F491E090937001881FFD
:101470008827881F90919502292F220F97FB992783
:1014800090F94091970260919602822B0C94140976
:1014900008958091940286958F738F5F8A3108F04A
:1014A00081E00C94090A80917D02816080937D0225
:1014B00081E0809371010E94C524811104C00E94C3
:1014C000A6240E948D080E94830860939402709362
:1014D000950280939602909397026F3F7F4F8F4FB4
:1014E0009F4F21F40E948D080E94A50880919402CC
:1014F0008E7761F40E948D080E94830860939402A5
:1015000070939502809396029093970281E0809366
:1015100070018091940280FF04C086958F730C94B3
:10152000090A0E94A5081092700108958091940202
:10153000982F909590FB80F980939402609194028B
:101540007091950280919602909197020E9487086F
:101550008091940280FF04C086958F730C94090AD1
:10156000109270012FEF80E792E021508040904070
:10157000E1F700C000000C94A508CF93C82F80911C
:101580006E0190916F010E94F621EC2FF0E0E55C76
:10159000FE4FE491F0E08E179F0718F10E94DE21C4
:1015A00090936F0180936E01E0916D01F0E0E15C3A
:1015B000FE4F449180919402881F8827881F909144
:1015C0009502292F220F97FB992790F96091960297
:1015D000822B0E94CB0880916D0190E00196809350
:1015E0006D01CF910895CF93C82F80916B01909199
:1015F0006C010E94F621EC2FF0E0E85CFE4FE491D4
:10160000F0E08E179F07E8F00E94DE2190936C01B6
:1016100080936B01409197026091960280916901DD
:1016200090916A010E94CB088091690190916A01B2
:10163000019668E671E00E94EC2B90936A0180931A
:101640006901CF910895CF92DF92FF920F931F937C
:10165000CF93DF93F82E80916701909168010E94EB
:10166000F621EF2DE695F0E0E85CFE4FE491F0E026
:101670008E179F07E8F10E94DE2190936801809306
:1016800067010CE912E0C0E0D0E088E6C82EDD2456
:10169000D39480916501909166018C0F9D1FB601D6
:1016A0000E94EC2B980140919702609196020E9453
:1016B0001A08AD960D5F1F4FC83681E0D80749F76D
:1016C0000E94A5082091650130916601F0FE0AC0D4
:1016D000C9010696BE010E94EC2B9093660180938F
:1016E000650106C0215031093093660120936501E0
:1016F000DF91CF911F910F91FF90DF90CF900895D0
:10170000AF92BF92CF92DF92EF92FF920F931F930F
:10171000CF93DF93C82F80FF02C01FEF01C011E0FD
:1017200080916301909164010E94F621C695EC2F8F
:10173000F0E0E65DFE4FE491F0E08E179F0708F4BD
:1017400065C00E94DE2190936401809363012CE9BF
:10175000C22E22E0D22E3EE9E32E32E0F32EC0E08C
:10176000D0E0F70131971082F6011082F701108264
:1017700094E0A92EB12C00E080916201800F87FDDA
:10178000885F082E000C990BC817D907E9F48091DF
:1017900097028A9DA0018B9D500D11245595479568
:1017A0005595479580919402881F8827881F9091AE
:1017B0009502592F550F97FB992790F99601609143
:1017C0009602852B0E941A08010FF1E0AF1AB108AA
:1017D00099F6219683E0C80ED11CE3E0EE0EF11CD1
:1017E000C830D10509F0BDCF0E94A50880916201E3
:1017F000113031F4811102C08DE006C0815004C067
:1018000090E001968770992780936201DF91CF91D4
:101810001F910F91FF90EF90DF90CF90BF90AF900E
:1018200008958F929F92AF92BF92CF92DF92EF92E4
:10183000FF920F931F93CF93DF93CDB7DEB76897D7
:101840000FB6F894DEBF0FBECDBF182F8091600198
:10185000909161010E94F621E12FF0E0E05EFE4FE1
:10186000E491F0E08E179F0708F4B3C00E94DE21D8
:101870009093610180936001CE0101967C016E011D
:1018800093E0C90ED11C00E010E04701F60131974A
:101890001082F7011082F6011082A12CB12C86E093
:1018A000A816B10461F19091010180915F019A9DA8
:1018B000800D112487FD04C088301CF087E001C032
:1018C00080E0082E000C990B08171907A1F48091ED
:1018D0009402881F8827881F90919502592F550FD1
:1018E00097FB992790F99701409197026091960292
:1018F000852B0E941A08FFEFAF1ABF0AD0CF0F5FE7
:101900001F4F93E0E90EF11CE3E0CE0ED11C08302E
:10191000110509F0BBCFAEE9B2E0F801E770FF278F
:10192000CD0101979F01220F331FE20FF31FAF017B
:10193000480D591DFA012181FC0120830197FA010C
:101940002081FC012083FA0182818C930F5F1F4F5D
:1019500013960031110509F70E94A5088091010135
:1019600010915F01612F012E000C770B8130B9F4CB
:1019700061507109072E000C880B990B0E94CA2A2E
:101980002BEA3AEA4AEA50EC0E948D2A87FF05C00A
:101990008BEF80935F018FEF16C0115018C06F5FFF
:1019A0007F4F072E000C880B990B0E94CA2A26E550
:1019B00035E545E551E40E94522B18163CF48CE0C5
:1019C00080935F0181E08093010103C01F5F10934A
:1019D0005F0168960FB6F894DEBF0FBECDBFDF91F2
:1019E000CF911F910F91FF90EF90DF90CF90BF901C
:1019F000AF909F908F90089580917001882309F493
:101A000040C08091940286958F739EE3980F9F73D8
:101A1000943018F482500C94BD0A9AE3980F9F7387
:101A2000933018F486500C94F30A97E3980F9F7341
:101A3000963018F489500C94230B91E3980F9F7300
:101A4000963090F4282F30E080FF07C02E503109E7
:101A5000822F880F880F820F05C094E0299F800D88
:101A600011248A540C94800B9AE2980F9F73933040
:101A700040F490E04697982F990F890F8E5F0C9451
:101A8000110C0895809172010895089508950F939F
:101A90001F93CF93DF938A3E910509F474C0C8F574
:101AA000863B910509F478C0C0F4833B910509F4A5
:101AB0007EC040F4823B910509F081C000E010E057
:101AC000D8E082C0843B910509F475C0853B91053F
:101AD00009F075C000E010E476C08D3C910509F472
:101AE00055C068F4873B910509F453C0883B9105C4
:101AF00009F065C000E010E0D0E0C0E266C0823EC0
:101B00009105F1F1893E910509F059C000E014E01A
:101B10005AC0833222E0920789F1A8F4823921E089
:101B2000920709F440C030F48A38914009F047C068
:101B300000E848C0843921E0920789F1813292405F
:101B4000F1F500E13FC0863222E0920799F048F4B7
:101B5000843222E09207A9F18532924081F502E0B9
:101B600031C0873222E0920739F08A32924039F54B
:101B700000E228C004E026C008E024C000E422C03F
:101B800000E011E020C000E012E01DC000E018E01D
:101B90001AC000E010E117C000E010E214C000E03D
:101BA00010E0D1E011C000E010E0D2E00DC000E094
:101BB00010E0D0E109C000E010E0D0E205C000E094
:101BC00001C001E010E0D0E0C0E088E00E94AC027B
:101BD00080E00E94AC0281EA0E94AC0283E00E9495
:101BE000AC02802F0E94AC02812F0E94AC028D2F8C
:101BF0000E94AC028C2FDF91CF911F910F910C941A
:101C0000AC02CF93DF93EC018CE00E94AC0280E049
:101C10000E94AC0281EA0E94AC0281E00E94AC0208
:101C200088810E94AC0280E00E94AC028A810E94FE
:101C3000AC028B810E94AC028C810E94AC028D812F
:101C40000E94AC028E810E94AC028F81DF91CF9105
:101C50000C94AC020E94EA216093780170937901A0
:101C600080937A0190937B0108950E94DA0788237C
:101C700009F465C080917F01811111C00E94D507D0
:101C8000882369F080917D0190917E010E94F62168
:101C9000893E9340B0F081E080937F0112C00E94A2
:101CA000D50781110EC080917F01882351F01092D9
:101CB0007F010E94DE2190937E0180937D0110922E
:101CC0007C018091800181113AC080917F01811156
:101CD00036C080917D0190917E010E94F621813372
:101CE000954768F10E94DE2190937E0180937D01EB
:101CF00080917C018F5F80937C010E94E1078FEFD0
:101D000099EF20E0815090402040E1F700C00000B2
:101D10000E94E30780917C01863088F08091B802B0
:101D2000843021F481E08093800105C081E08093BC
:101D30007501809374010E94E10710927C018091EB
:101D4000800181111EC00E9408168250914059F0F6
:101D50000E94541B80911701809377011092170104
:101D600082E091E01EC080917601811125C08091B2
:101D7000B802843009F581E0809380018093760178
:101D80001BC00E9408168C50914071F081E0809336
:101D900076010E94541B80917701809317018CE09B
:101DA00091E00E94031608C08091B802843021F0AF
:101DB000109280011092760180917301811116C0FA
:101DC00080917501811112C0609178017091790143
:101DD00080917A0190917B010E94202261337547A6
:101DE0008105910518F081E0809375010E94DA0762
:101DF0008823C1F0809175018823A1F0609178015A
:101E00007091790180917A0190917B010E9420224A
:101E100061387E4E8643910528F081E080937401FD
:101E20000C94E10708958331E9F0883181F0853021
:101E300009F50E94541B2FEF83ED90E32150804061
:101E40009040E1F700C000000E94722211C0809112
:101E50008001882319F010928001089581E0809319
:101E6000800108959091730181E089278093730127
:101E700081E0089580E0089584B7877F84BF0FB61E
:101E8000F894A8958091600088618093600010921A
:101E900060000FBE90E080E80FB6F8948093610078
:101EA000909361000FBE0E9420130E947D138091C9
:101EB000E20084608093E20078948FEF9091B80202
:101EC0008150943041F0EFE7FEE33197F1F700C025
:101ED00000008111F3CF8091B802843019F481E0C1
:101EE000809380010E94CF070E942A0E0E9445160F
:101EF00080917501882391F00E94D2220E94942241
:101F0000882361F0109275010E94E4298091740188
:101F1000882321F0109274010E94E30780917401DC
:101F20008111E6CF0E9451160E94350EE1CF8091BB
:101F3000A20108950895CF93DF9300D01F92CDB7EB
:101F4000DEB79C018091B802843019F593E0998343
:101F50003B832A839093E9008FEF9091E8008150B2
:101F600095FD06C095ED9A95F1F700008111F5CF2A
:101F70008091E80085FF0DC040E050E063E070E034
:101F8000CE0101960E948B118091E8008E7780939C
:101F9000E8000F900F900F90DF91CF91089520915E
:101FA000B8022430F1F422E02093E9002FEF3091C1
:101FB000E800215035FD06C035ED3A95F1F70000F7
:101FC0002111F5CF2091E80025FF0BC040E050E043
:101FD00065E070E00E948B118091E8008E7780931D
:101FE000E8000895CF93DF93EC019091B80294300C
:101FF00009F046C0809116018823D9F0809117011D
:102000008823B9F09093E9008FEF9091E800815018
:1020100095FD06C09AE29A95F1F700C08111F5CFBF
:102020008091E80085FF2CC040E050E060E270E065
:1020300017C081E08093E9008FEF9091E800815014
:1020400095FD06C095ED9A95F1F700008111F5CF49
:102050008091E80085FF14C040E050E068E070E047
:10206000CE010E948B118091E8008E778093E8006A
:1020700080E2FE01A2E8B1E001900D928A95E1F7BD
:10208000DF91CF9108958091B702811109C00E941C
:1020900020130E947D138091E20084608093E2000F
:1020A00008951092B7020895089542E061EC81E02E
:1020B0000E949A1242E061EC82E00E949A1242E091
:1020C00061EC83E00E949A1242E261EC84E00C949D
:1020D0009A128091BA02833009F455C030F48130ED
:1020E00071F0823009F48EC008958A3009F47AC004
:1020F0008B3009F460C0893009F09CC020C0809109
:10210000B902813A09F096C08091E800877F8093F8
:10211000E8008091BD029091BE02892B21F460E21B
:1021200082E891E003C060E080E090E070E00E940F
:10213000D6118091E8008B778093E8000895809114
:10214000B902813209F076C08091BD029091BE0241
:10215000009719F0039709F06DC08091E800877F20
:102160008093E8008091E80082FD05C08091B8026C
:102170008111F8CF5FC08091F1008093A20180911E
:10218000E8008B7753C08091B902813A09F052C0C0
:102190008091BD029091BE02892B09F04BC08091C5
:1021A000E800877F8093E8008091E80080FFFCCF03
:1021B0008091160136C08091B9028132D9F58091A3
:1021C000BD029091BE02892BA9F58091E800877F1E
:1021D0008093E8000E94CF128091BB028093160189
:1021E0000C94541B8091B902813221F58091E80052
:1021F000877F8093E8000E94CF128091BC02809379
:10220000A30108958091B902813AA1F48091E80078
:10221000877F8093E8008091E80080FFFCCF809169
:10222000A3018093F1008091E8008E778093E8000D
:102230000C94CF1208958091A20180938101109295
:10224000A20180E00E940B060E940A170C94541B06
:102250000C941B110E94FD22809181018093A201A8
:1022600008950C942A11292F332723303105C9F002
:1022700064F42130310581F02230310509F043C08A
:102280008DE690E025E632E042C021323105F1F0E2
:102290002232310541F137C082E190E022ED32E097
:1022A00036C099278130910541F08230910541F087
:1022B000892B49F5E1E6F2E005C0EDE4F2E002C069
:1022C000EFE3F2E0849190E09F0121C06430D8F404
:1022D000E62FF0E0EE0FFF1FE45DFE4F208131811D
:1022E00089E090E014C0643070F470E0FB01EE0F00
:1022F000FF1FEC5DFE4F20813181FB01E05EFE4F50
:10230000808190E004C080E090E020E030E0FA01BD
:10231000318320830895CF92DF92EF92FF920F9343
:102320001F93CF93DF93EC018B016A010E94EE12A1
:10233000811133C0C114D10439F0F601808191813B
:10234000081B190BC80FD91FE12CF12C0115110521
:1023500019F18091E80085FD16C08091E8008E7724
:102360008093E800C114D10449F0F6018081918185
:10237000E80EF91EF182E08285E00FC00E94EE12A5
:10238000882321F30AC089918093F100015011093B
:10239000FFEFEF1AFF0ADACF80E0DF91CF911F91B4
:1023A0000F91FF90EF90DF90CF9008952091BF02A2
:1023B0003091C0022617370748F06115710539F4CE
:1023C0002091E8002E772093E80001C0B90140E099
:1023D00061157105A9F12091B802222309F443C0C7
:1023E000253009F442C02091E80023FD40C020912F
:1023F000E80022FD32C02091E80020FFE9CF4091A3
:10240000F3002091F20030E0342BFC01CF01611584
:10241000710559F02830310540F481918093F10025
:10242000615071092F5F3F4FF1CF41E028303105F6
:1024300009F040E02091E8002E772093E800C8CF13
:102440004111C9CF0AC08091B802882361F085305C
:1024500061F08091E80083FD0AC08091E80082FF6E
:10246000F2CF80E0089582E0089583E0089581E04E
:1024700008952091BF023091C0022617370748F017
:102480006115710539F42091E8002E772093E8005A
:1024900001C0B901FC0120E06115710591F1809145
:1024A000B802882309F440C0853009F43FC0809108
:1024B000E80083FD3DC08091E80082FD2FC080913F
:1024C000E80080FFE9CF2091F3008091F20090E0D6
:1024D000922B6115710559F08830910540F42491D3
:1024E0002093F1003196615071090196F2CF21E0FD
:1024F000089709F020E08091E8008E778093E8004B
:10250000CBCF2111CCCF0AC08091B802882361F0D3
:10251000853061F08091E80083FD0AC08091E80079
:1025200082FFF2CF80E0089582E0089583E008956D
:1025300081E00895982F973058F59093E900981707
:1025400039F07091EC002091ED005091F00003C043
:10255000242F762F50E021FF19C03091EB003E7FF1
:102560003093EB003091ED003D7F3093ED003091E2
:10257000EB0031603093EB007093EC002093ED00A2
:102580005093F0002091EE0027FF07C09F5FD3CF4C
:102590008F708093E90081E0089580E00895809134
:1025A000B90287FF11C08091E80082FD05C08091CB
:1025B000B8028111F8CF11C08091E8008B770BC071
:1025C0008091B802882349F08091E80080FFF8CF1D
:1025D0008091E8008E778093E80008952091E400D0
:1025E0003091E50095E64091EC00842F817040FF2A
:1025F00022C08091E80080FD1CC08091B802882331
:1026000091F0853091F08091EB0085FD10C04091F4
:10261000E4005091E5004217530729F39A019150C5
:1026200011F784E0089582E0089583E0089581E041
:10263000089580E008954091E80042FFDECF0895BC
:102640000E948E130E949613E0EEF0E0808181607C
:102650008083E8EDF0E080818F77808319BCA7ED5F
:10266000B0E08C918E7F8C9380818F7E80831092DE
:10267000B70208950F931F93CF93DF930E948E1399
:102680000E949613C8EDD0E088818F778883888177
:102690008068888388818F7D888319BC1092B802F6
:1026A0001092B4021092B6021092B50200EE10E041
:1026B000F80180818B7F808388818160888342E0FC
:1026C00060E080E00E949A12E1EEF0E080818E7F6F
:1026D0008083E2EEF0E08081816080838081886089
:1026E0008083F80180818E7F8083888180618883E8
:1026F000DF91CF911F910F910895E8EDF0E0808177
:102700008F7E8083E7EDF0E080818160808384E0CC
:1027100082BF81E08093B7020C943A13E8EDF0E0B9
:1027200080818E7F80831092E20008951092DA00FB
:102730001092E10008951F920F920FB60F9211248C
:102740002F933F934F935F936F937F938F939F93B9
:10275000AF93BF93EF93FF938091E10082FF0BC093
:102760008091E20082FF07C08091E1008B7F80931F
:10277000E1000E9402168091DA0080FF1FC0809164
:10278000D80080FF1BC08091DA008E7F8093DA0032
:102790008091D90080FF0DC080E189BD82E189BDB3
:1027A00009B400FEFDCF81E08093B8020E9443107F
:1027B00005C019BC1092B8020E9451108091E1002E
:1027C00080FF19C08091E20080FF15C08091E20077
:1027D0008E7F8093E2008091E20080618093E2002E
:1027E0008091D80080628093D80019BC85E08093E6
:1027F000B8020E9428118091E10084FF30C08091CE
:10280000E20084FF2CC080E189BD82E189BD09B46A
:1028100000FEFDCF8091D8008F7D8093D8008091FD
:10282000E1008F7E8093E1008091E2008F7E8093B3
:10283000E2008091E20081608093E2008091B40226
:10284000882311F084E007C08091E30087FD02C077
:1028500081E001C083E08093B8020E943111809131
:10286000E10083FF29C08091E20083FF25C08091B1
:10287000E100877F8093E10082E08093B8021092AC
:10288000B4028091E1008E7F8093E1008091E200AC
:102890008E7F8093E2008091E20080618093E2006D
:1028A00042E060E080E00E949A128091F00088602F
:1028B0008093F0000E945410FF91EF91BF91AF916F
:1028C0009F918F917F916F915F914F913F912F9148
:1028D0000F900FBE0F901F9018951F920F920FB67A
:1028E0000F9211242F933F934F935F936F937F9396
:1028F0008F939F93AF93BF93CF93DF93EF93FF9308
:10290000C091E900CF708091EC00D82FD17080FD8C
:10291000D0E81092E9008091F000877F8093F0006A
:1029200078940E94B1141092E9008091F0008860C0
:102930008093F000CD2BCF70C093E900FF91EF9111
:10294000DF91CF91BF91AF919F918F917F916F91C7
:102950005F914F913F912F910F900FBE0F901F905D
:1029600018951F93CF93DF93CDB7DEB7AA970FB615
:10297000F894DEBF0FBECDBFE9EBF2E088E08E0F2A
:102980009091F10091938E13FBCF0E94691080917A
:10299000E80083FF1FC18091B9029091BA02492FCC
:1029A00050E04A30510508F015C1FA01E25AFF4FD4
:1029B0000C94142C803881F0823809F00BC180917E
:1029C000BD028F708093E9008091EB0085FB882722
:1029D00080F91092E90006C08091B5029091B6028C
:1029E000911182609091E800977F9093E800809326
:1029F000F1001092F100C8C0282F2D7F09F0EAC025
:102A0000882319F0823061F0E5C08091BB028130EB
:102A100009F0E0C0933009F080E08093B6022BC04B
:102A20008091BB02811127C08091BD028F7009F493
:102A3000D1C08093E9002091EB0020FF1CC09330AF
:102A400021F48091EB00806214C09091EB009061C2
:102A50009093EB0021E030E0A90102C0440F551F24
:102A60008A95E2F74093EA001092EA008091EB0029
:102A700088608093EB001092E9008091E800877FE6
:102A800086C08111A7C01091BB021F778091E3001F
:102A90008078812B8093E3008091E800877F80938A
:102AA000E8000E94CF128091E80080FFFCCF809167
:102AB000E30080688093E300111102C082E001C04E
:102AC00083E08093B80286C08058823008F082C0CC
:102AD0008091BB029091BC028C3D53E0950779F543
:102AE00083E08A838AE289834FB7F894DE011396E4
:102AF00020E03EE051E2E32FF0E050935700E491F4
:102B000020FF03C0E295EF703F5FEF708E2F90E0E3
:102B1000EA3010F0C79601C0C0968D939D932F5F49
:102B2000243149F74FBF8091E800877F8093E80008
:102B30006AE270E0CE0101960E94D61114C0AE0187
:102B40004F5F5F4F6091BD020E943311BC01892B22
:102B500009F440C09091E800977F9093E800898144
:102B60009A810E9439128091E8008B778093E80067
:102B700031C0803879F58091E800877F8093E80044
:102B80008091B4028093F1008091E8008E77809369
:102B9000E8000E94CF121EC081111CC09091BB02A0
:102BA0009230C0F48091E800877F8093E800909392
:102BB000B4020E94CF128091B402811106C08091AC
:102BC000E30087FD02C081E001C084E08093B80289
:102BD0000E9455108091E80083FF0AC08091E800B0
:102BE000877F8093E8008091EB0080628093EB0008
:102BF000AA960FB6F894DEBF0FBECDBFDF91CF917E
:102C00001F91089508959093A7018093A6010895B8
:102C10008091A6019091A7010895E091A601F091FD
:102C2000A701309721F00190F081E02D099480E018
:102C30000895E091A601F091A701309721F002805C
:102C4000F381E02D09940895E091A601F091A70188
:102C5000309721F00480F581E02D099408952091AA
:102C6000A4013091A5018217930771F09093A501FB
:102C70008093A401E091A601F091A701309721F083
:102C80000084F185E02D099408950E94D5210E94C9
:102C900030040E9460230E9441050E9483290C9405
:102CA000E4295F926F927F928F929F92AF92BF9230
:102CB000CF92DF92EF92FF920F931F93CF93DF9308
:102CC00000D000D01F92CDB7DEB70E94650409EA9C
:102CD00011E0512C88248394912C852D0E94370576
:102CE0005C01F801C080D180C826D926C114D10466
:102CF00039F453940E5F1F4FF4E05F12EECF3FC0E4
:102D000080917D0281FD0E944005E12CF12C34016F
:102D10000E2C02C0660C771C0A94E2F7C3018C21CA
:102D20009D21892B21F1E9825A8221E0C3018A2168
:102D30009B21892B09F420E02B830E94DE218160F6
:102D4000782F9D838C8349815A816B818D810E946C
:102D50000D1749815A816B817C818D810E942107E9
:102D6000F801808191816826792671826082FFEF67
:102D7000EF1AFF0A8BE0E816F10449F6BACF8FEF9D
:102D800089838A831B820E94DE218160782F9D8344
:102D90008C8349815A816B818D810E940D170E941D
:102DA000D1210E946E261091A8010E940D161817BD
:102DB000D1F00E940D168093A8010F900F900F90F4
:102DC0000F900F90DF91CF911F910F91FF90EF9097
:102DD000DF90CF90BF90AF909F908F907F906F903B
:102DE0005F900C94D2210F900F900F900F900F9046
:102DF000DF91CF911F910F91FF90EF90DF90CF90D7
:102E0000BF90AF909F908F907F906F905F9008954C
:102E10000C940B06089508950895CF93DF93CDB7D2
:102E2000DEB72B970FB6F894DEBF0FBECDBF942F41
:102E30004F83252F588769877A878B874A855B85DB
:102E4000452B21F02F3F09F59F3FF9F4DE01119644
:102E500086E0FD0111928A95E9F785E0FE0137963B
:102E600001900D928A95E1F749815A816B817C81AD
:102E70008D819E810E941F1E2B960FB6F894DEBF97
:102E80000FBECDBFDF91CF9108954F8158856985E1
:102E90007A858B850E942107D9CFCF93882309F4A7
:102EA00052C0C82F8CEF8C0F813A20F080E58C0F38
:102EB0008E3248F48C2F0E94EB28811144C08C2F55
:102EC0000E94E8200CC080E28C0F883058F4C77054
:102ED00081E001C0880FCA95EAF70E947121CF9165
:102EE0000C94AB2188E58C0F873168F5C83A89F0DE
:102EF000C93A91F0CA3A99F0CB3AA1F0CC3AA9F08C
:102F0000CD3AB1F0CE3AB9F0CF3AC1F080E090E0DE
:102F100017C082EE90E014C089EE90E011C08AEEF6
:102F200090E00EC085EB90E00BC086EB90E008C00F
:102F300083EB90E005C084EB90E002C087EB90E06B
:102F4000CF910C942F16CF910895882309F19CEF0F
:102F5000980F913A20F090E5980F9E3218F40E9455
:102F60002A210DC090E2980F983058F4877091E0B4
:102F700001C0990F8A95EAF7892F0E9477210C9456
:102F8000AB21885A873120F480E090E00C942F1612
:102F90000895882321F00E9471210C94AB2108959B
:102FA000882321F00E9477210C94AB210895CF92C1
:102FB000DF92EF92FF920F931F93CF93DF93CDB7E2
:102FC000DEB727970FB6F894DEBF0FBECDBF25E062
:102FD000FC01DE01119601900D922A95E1F7FC01AA
:102FE00040815181028163817481258122952F70F6
:102FF0006115710509F43BC35F3F19F44F3F09F4B4
:1030000036C36C01862F7D836C83602F782F8D8172
:103010002F830E947B20182F9E830E947A200E947B
:103020006A1F3E81E32FE295EF70F0E0E859FF4F11
:103030002F810C94142C832F807F932F9F70F92E57
:10304000882319F0F29490EFF922002349F0FF2031
:1030500009F44CC28F2D0E9484210E94AB2146C2EC
:10306000812F0E94A517FF2009F401C38F2D0E9414
:103070008A2127960FB6F894DEBF0FBECDBFDF9131
:10308000CF911F910F91FF90EF90DF90CF900C9414
:10309000AB21832F807F932F9F70F92E803219F000
:1030A000F29480EFF822112319F0113001F129C0B8
:1030B0000023A9F08F2D222349F1213039F52796DD
:1030C0000FB6F894DEBF0FBECDBFDF91CF911F9139
:1030D0000F91FF90EF90DF90CF900C9494212223DA
:1030E00019F0213009F4C3C20E9497212CC000239B
:1030F000E9F0233008F0BBC20E946E218F2129F035
:1031000022C00023F1F0211115C08F2D27960FB694
:10311000F894DEBF0FBECDBFDF91CF911F910F910D
:10312000FF90EF90DF90CF900C94C917223008F0F9
:103130009EC209C0F601858180FFD8C18F7085834A
:10314000E4CF2111E7C18F2D55C1832F8695869538
:10315000837009F08CC2002321F0812F932F93708C
:1031600002C080E090E027960FB6F894DEBF0FBE55
:10317000CDBFDF91CF911F910F91FF90EF90DF9026
:10318000CF900C942F16812F002381F00E9476257A
:103190000E946326163408F06AC2E12FF0E0EE5474
:1031A000FE4F81E080838093B10161C20E94DE25E1
:1031B0000E946326163408F05AC2E12FF0E0EE5464
:1031C000FE4F10821092B10152C2832F837009F01A
:1031D00078C001114CC2812F829586958770880F27
:1031E000880F912F9F70C92ED12CE12CF12C082E25
:1031F00004C0CC0CDD1CEE1CFF1C0A94D2F714FF9B
:1032000012C04FE050E060E070E004C0440F551F72
:10321000661F771F8A95D2F7CB01BA01609570952A
:103220008095909503C060E070E0CB01232F269538
:1032300026952370422F50E042305105D1F04330A3
:10324000510559F16C297D298E299F29413051055D
:1032500041F127960FB6F894DEBF0FBECDBFDF91C8
:10326000CF911F910F91FF90EF90DF90CF900C9432
:103270008F1F6C297D298E299F2927960FB6F894D8
:10328000DEBF0FBECDBFDF91CF911F910F91FF9099
:10329000EF90DF90CF900C94A91F0E948F1FC70161
:1032A000B60127960FB6F894DEBF0FBECDBFDF91F3
:1032B000CF911F910F91FF90EF90DF90CF900C94E2
:1032C000751F002319F0832F817001C08695882314
:1032D00009F4CDC1812F829586958770880F880F5C
:1032E000912F9F70C92ED12CE12CF12C082E04C0F7
:1032F000CC0CDD1CEE1CFF1C0A94D2F714FF12C08C
:103300004FE050E060E070E004C0440F551F661FBE
:10331000771F8A95D2F7CB01BA0160957095809599
:10332000909503C060E070E0CB01232F2695269591
:103330002370422F50E042305105D1F04330510507
:1033400059F16C297D298E299F294130510541F180
:1033500027960FB6F894DEBF0FBECDBFDF91CF9199
:103360001F910F91FF90EF90DF90CF900C9456201B
:103370006C297D298E299F2927960FB6F894DEBFE8
:103380000FBECDBFDF91CF911F910F91FF90EF90B6
:10339000DF90CF900C9468200E945620C701B601A0
:1033A00027960FB6F894DEBF0FBECDBFDF91CF9149
:1033B0001F910F91FF90EF90DF90CF900C944420DD
:1033C000103F41F118F4103E48F48BC0123F09F44D
:1033D00050C0D8F1133F09F460C083C01F70832F21
:1033E0008F71002321F00E94DD1F812F8FCE0E945C
:1033F000FE1F812F27960FB6F894DEBF0FBECDBFFC
:10340000DF91CF911F910F91FF90EF90DF90CF90C0
:103410000C94D0170023A9F0223008F028C1832F84
:103420008F7127960FB6F894DEBF0FBECDBFDF9128
:10343000CF911F910F91FF90EF90DF90CF900C9460
:103440002320233008F013C1EACF0023A1F0832FFB
:103450008F7127960FB6F894DEBF0FBECDBFDF91F8
:10346000CF911F910F91FF90EF90DF90CF900C9430
:10347000DD1F002361F3832F8F7127960FB6F89419
:10348000DEBF0FBECDBFDF91CF911F910F91FF9097
:10349000EF90DF90CF900C94FE1F002391F0832FCC
:1034A0008F7127960FB6F894DEBF0FBECDBFDF91A8
:1034B000CF911F910F91FF90EF90DF90CF900C94E0
:1034C000C81F27960FB6F894DEBF0FBECDBFDF91A1
:1034D000CF911F910F91FF90EF90DF90CF900C94C0
:1034E000C31F0023A1F0222309F4B1CF812F279617
:1034F0000FB6F894DEBF0FBECDBFDF91CF911F9105
:103500000F91FF90EF90DF90CF900C944D172223F6
:1035100009F4B1CF812F27960FB6F894DEBF0FBE06
:10352000CDBFDF91CF911F910F91FF90EF90DF9072
:10353000CF900C94A517432F4F70612FC6010E94A6
:10354000032327960FB6F894DEBF0FBECDBFDF91E1
:10355000CF911F910F91FF90EF90DF90CF900C943F
:10356000C31E011184C0112351F0832F8F7084304A
:1035700031F0932F907F212F2F70392F322B932FE3
:103580009F70892F90E082309105E9F1ACF40097AB
:1035900051F1019709F06BC027960FB6F894DEBF82
:1035A0000FBECDBFDF91CF911F910F91FF90EF9094
:1035B000DF90CF900C94102A83309105A1F10497ED
:1035C00009F055C0812F27960FB6F894DEBF0FBEC5
:1035D000CDBFDF91CF911F910F91FF90EF90DF90C2
:1035E000CF900C94752A27960FB6F894DEBF0FBEC5
:1035F000CDBFDF91CF911F910F91FF90EF90DF90A2
:10360000CF900C94F92927960FB6F894DEBF0FBE21
:10361000CDBFDF91CF911F910F91FF90EF90DF9081
:10362000CF900C94332A27960FB6F894DEBF0FBEC6
:10363000CDBFDF91CF911F910F91FF90EF90DF9061
:10364000CF900C94522A432F4F70612FC6012796BA
:103650000FB6F894DEBF0FBECDBFDF91CF911F91A3
:103660000F91FF90EF90DF90CF900C94000327967E
:103670000FB6F894DEBF0FBECDBFDF91CF911F9183
:103680000F91FF90EF90DF90CF9008950E949121CD
:103690000E9460210E94AB210E9453270E94632652
:1036A00080E090E00C942F160E9481210C94461B20
:1036B000CF93DF9300D000D01F92CDB7DEB70E942A
:1036C0007B20292F22952F7030E02C3031054CF4CF
:1036D0002A303105C4F4225031092230310540F03E
:1036E00023C02C303105D1F02F303105B9F01CC08A
:1036F000853A28F48430B0F4823028F413C090E284
:10370000980F983078F0883E30F4803E58F484501A
:10371000813A50F407C0803F39F404C093FB8827F6
:1037200080F903C081E001C080E00F900F900F90FE
:103730000F900F90DF91CF910895CF93DF9300D03A
:1037400000D01F92CDB7DEB70F900F900F900F9063
:103750000F90DF91CF910895CF93DF9300D000D0E9
:1037600000D0CDB7DEB726960FB6F894DEBF0FBEF9
:10377000CDBFDF91CF9108951F93CF93DF93C09179
:10378000EE0116E08091EF01C81799F0D0E01C9F80
:10379000F0011D9FF00D1124E051FE4F4081518139
:1037A00062817381848195810E94AC1B2196C770D0
:1037B000E9CFDF91CF911F91089540912002509160
:1037C0002102609122027091230280912402909143
:1037D00025020C94AC1B8091250282958F7009F014
:1037E00054C080912202882309F44FC08091EE01D9
:1037F000A091EF016091200270912102409123027B
:1038000050912402B6E08A1709F43FC090E04115B8
:103810005105C1F17F3F11F46F3FA1F1B89FF00155
:10382000B99FF00D1124E051FE4F218172132AC07F
:103830002081621327C02281211124C02381348179
:103840002417350710F421503109241B350B243B74
:103850003105C0F4209125022F70206120932502AC
:1038600026E0289FF001299FF00D1124EB50FE4F18
:1038700080818F708061808380E292E00E94D71700
:103880000C94BC1B01968770BECF0895BF92CF9257
:10389000DF92EF92FF920F931F93CF93DF93CDB7F9
:1038A000DEB761970FB6F894DEBF0FBECDBF7C01C7
:1038B00085E0F701DE011D9601900D928A95E1F7F2
:1038C000D7014C9111965C9111971296DC9012974A
:1038D00013960D911C911497309120026091210252
:1038E0008091230290912402009709F477C16F3FE1
:1038F00019F43F3F09F472C1B0902202BB2009F4D1
:10390000C5C0209125020817190728F0F801E81B07
:10391000F90BCF0104C080959095800F911FCC24A6
:10392000C394843B910580F0C12C207F09F0CCC06A
:10393000702F198B088B6D2D89890E949D1B80E249
:1039400092E00E94D717B6C0822F807F09F047C04F
:10395000651314C0341312C0D11010C02F70206131
:10396000209325020E94DD1B80E292E00E94D7177F
:1039700080912502D70115968C932FC00115110552
:1039800019F15F3F11F44F3FF9F0CD2CD1101CC05D
:103990008091EE012091EF0136E0821709F45CC0BE
:1039A00090E0389FF001399FF00D1124E051FE4F57
:1039B0006181561306C06081461303C062816111A4
:1039C00003C001968770E9CFCD2CDD2009F426C114
:1039D00080912502816080932502C12C1FC165134F
:1039E00008C0341306C0D11004C080912502D7014D
:1039F000C9C04D875E87DF86702F198B088B6D2DB0
:103A000089890E94581B8823E9F1DD20D9F1209192
:103A10002502822F82958F7090E0029774F080913A
:103A200020029091210298878F8319861B870A872D
:103A30002C87CE0107960E94D71786E0F701A0E2F7
:103A4000B2E001900D928A95E1F70E94EB1B0E9473
:103A5000DD1BCC24C394E2C0702F198B088B60E06F
:103A600089890E947B20292F22952F7030E02230F7
:103A700031050CF0C7C09F7009F0C1C0805E88306E
:103A800008F4CCC0C7010E94D717E3CF0817190765
:103A900008F456C0F801E81BF90BCF01843B9105EF
:103AA00008F453C0C12C702F198B088B6D2D898998
:103AB0000E949D1BE0E2F2E086E0DF011D928A9504
:103AC000E9F70E94DD1BAAC0651314C0341312C0AD
:103AD000D11010C080912502F7018583C7010E9493
:103AE000D71786E0E0E2F2E0DF011D928A95E9F760
:103AF000CB2C94C04D875E87DF86702F198B088B87
:103B00006D2D89890E94581B882309F4BBCFDD20C5
:103B100009F4B8CF20912502822F82958F7090E012
:103B200002970CF48ACF80912002909121029A830F
:103B300089831B821D830C832E83CE0101967BCF4C
:103B400080959095800F911FA9CFCD2CDD2009F491
:103B500099CF65132EC034132CC02091250220FD6F
:103B60001FC0822F82958F70D9F0D70115962C93A4
:103B700015978F3049F08F5F982F9295907F822F05
:103B80008F70892B15968C93C7010E94D71786E0FA
:103B9000F701A0E2B2E001900D928A95E1F791CF92
:103BA00086E0F701A0E2B2E001900D928A95E1F77C
:103BB00035C04D875E87DF86702F198B088B6D2D82
:103BC00089890E94581B811138CF8091250281601C
:103BD00080932502C7010E94D71720C0DD2009F479
:103BE00051CF4D875E87DF86702F198B088B6D2D27
:103BF00089890E94581B882309F444CF1ECF811164
:103C00003DCF0CC0243031050CF03CCF9F7009F43F
:103C100035CFF7019581907F09F030CF8C2D6196DB
:103C20000FB6F894DEBF0FBECDBFDF91CF911F91CD
:103C30000F91FF90EF90DF90CF90BF9008951F936A
:103C4000CF93DF93CDB7DEB72C970FB6F894DEBFD6
:103C50000FBECDBF4F83588769877A878B879C8734
:103C6000CE0107960E94461C882369F08F819885B3
:103C70002A853B85232BF1F19F3F09F063C08F3FDD
:103C800009F060C037C086E0FE013796DE0111966C
:103C900001900D928A95E1F76F817885EA85FB8521
:103CA000309741F17F3F11F46F3F21F12091EF01F7
:103CB00030E0C9010196877099274091EE0150E0EC
:103CC0008417950709F447C069837A83FD83EC83E1
:103CD00096E0929FD001939FB00D1124A051BE4F4A
:103CE000FE01319601900D929A95E1F78093EF01D4
:103CF0000E94BC1B16E08091EE019091EF018917A4
:103D0000C1F1189FC001112480519E4F0E94461C92
:103D1000882379F1E091EE011E9FF0011124E0511A
:103D2000FE4F4081518162817381848195810E941F
:103D3000AC1B8091EE0190E00196877099278093EB
:103D4000EE01D9CF4F81588569857A858B859C8511
:103D50000E94AC1BCFCF0E94541B1092EF01109217
:103D6000EE01E0E2F2E086E0DF011D928A95E9F7DC
:103D7000C1CF2C960FB6F894DEBF0FBECDBFDF913A
:103D8000CF911F910895DF92EF92FF920F931F93AF
:103D9000CF93DF93FC01892B09F48AC0E12CF12C2D
:103DA000DD24D394EF0121968491853709F461C015
:103DB00058F4843708F04EC0843008F06AC081306F
:103DC000D1F0823071F174C0883709F45DC050F4CD
:103DD000863709F455C0873709F06AC08E2D0E94D6
:103DE0007E2154C09CE7980F903708F061C08F7710
:103DF0000E94A51750C08F010E5F1F4FFE018491D6
:103E000090E2980F983050F48770FD2D01C0FF0F9D
:103E10008A95EAF78F2F0E94842114C00E944D17C3
:103E200013C08F010E5F1F4FFE01C49180E28C0F03
:103E3000883060F4C7708D2D01C0880FCA95EAF7ED
:103E40000E948A210E94AB21E80125C08C2F0E948C
:103E5000A517FACF9F012E5F3F4FFE01C491CC23DF
:103E600069F08FE99FE00197F1F700C00000C150B1
:103E7000F6CF9F012E5F3F4FFE01F490E9010BC08A
:103E80000E946E21E82E07C00E9481210E94AB2172
:103E900002C00E944D178F2D882341F0EFE9FFE00B
:103EA0003197F1F700C000008150F6CFFE017ACFC4
:103EB000DF91CF911F910F91FF90EF90DF900895C8
:103EC0006093520270935302809354029093550270
:103ED0000C943606089560935602709357028093AF
:103EE0005802909359020C9475060F931F930091FA
:103EF0005602109157022091580230915902602BBE
:103F0000712B822B932B60935602709357028093F0
:103F10005802909359021F910F910C9475060F93BC
:103F20001F93009156021091570220915802309130
:103F30005902602371238223932360935602709366
:103F4000570280935802909359021F910F910C943D
:103F500075060F931F9300915602109157022091FE
:103F60005802309159026027712782279327609366
:103F700056027093570280935802909359021F91F2
:103F80000F910C94750660E070E0CB010C94601FFB
:103F90000F931F9341E050E060E070E08A019B01C5
:103FA00004C0000F111F221F331F8A95D2F7C901C9
:103FB000B8011F910F910C94601F0F931F9341E064
:103FC00050E060E070E004C0440F551F661F771F8B
:103FD0008A95D2F78091520290915302A091540297
:103FE000B09155028A019B01082B192B2A2B3B2BE0
:103FF000C901B8011F910F910C94601F0F931F937B
:1040000041E050E060E070E004C0440F551F661FBF
:10401000771F8A95D2F7409550956095709580915D
:10402000520290915302A0915402B09155028A011C
:104030009B01082319232A233B23C901B8011F919F
:104040000F910C94601F0F931F9341E050E060E0CC
:1040500070E004C0440F551F661F771F8A95D2F782
:104060008091520290915302A0915402B091550256
:104070008A019B01082719272A273B27C901B80174
:104080001F910F910C94601F0F931F930091520288
:10409000109153022091540230915502602B712BE4
:1040A000822B932B1F910F910C94601F0F931F93E2
:1040B0000091520210915302209154023091550206
:1040C00060237123822393231F910F910C94601F0F
:1040D0000F931F93009152021091530220915402AA
:1040E0003091550260277127822793271F910F91E6
:1040F0000C94601F08958F929F92AF92BF92DF92AF
:10410000EF92FF920F931F93CF93DF9300D000D0D5
:104110001F92CDB7DEB78A016623C9F1809056029F
:1041200090905702A0905802B0905902809152028C
:1041300090915302A0915402B0915502882A992A75
:10414000AA2ABB2A8FE1E82EF12CD501C4010E2C3E
:1041500004C0B695A795979587950A94D2F780FFE6
:1041600007C0DE2CB8018E2D0E94CA02019729F4E7
:1041700081E0E81AF10848F7D12C8BE0189FF00194
:104180001124E00FF11DEA5DFD4FD08209C08BE0E4
:10419000189FF0011124E40FF11DEA5DFD4FD0805E
:1041A00009831A8369817A818D2D0E94CA020F903A
:1041B0000F900F900F900F90DF91CF911F910F9163
:1041C000FF90EF90DF90BF90AF909F908F900895F9
:1041D00090911601992321F090911701911109C036
:1041E0002091180130911901F90132969FEF40E0BA
:1041F0001FC0982F9695969596959F3150F5E09112
:104200001801F0911901E90FF11D877021E030E0EC
:10421000A90102C0440F551F8A95E2F7CA01918196
:10422000892B818308959F3F39F04F5F4E3141F0D4
:1042300051915813F8CF0DC05111F7CF942FF5CFEE
:104240009F3F39F0F901E90FF11D97FDFA9582833F
:104250000895089590911601992321F090911701E6
:10426000911109C02091180130911901F90132967C
:10427000205E3F4F1FC0982F9695969596959F313B
:10428000F0F4E0911801F0911901E90FF11D877028
:1042900021E030E0A90102C0440F551F8A95E2F7E2
:1042A000CA01809591818923818308953196E2170F
:1042B000F30729F090819813F9CF1082F7CF089572
:1042C00081E090E0E0911801F0911901E80FF91FE9
:1042D0001082019680329105A9F7089580917C02A1
:1042E000089590917C02892B80937C02089580959B
:1042F00090917C02892380937C02089580937C02B4
:10430000089510927C02089590917B02892B8093EE
:104310007B020895809590917B02892380937B0294
:10432000089510927B02089580935A020895109286
:104330005A0208958091180190911901FC0131965B
:104340009C01205E3F4F80E0919191118F5FE217B9
:10435000F307D1F70895E0911801F09119018091C8
:104360007C028083E0911801F09119019081809185
:104370007B02892B808380915A02882361F0E0912F
:104380001801F09119019081892B80830E949A2154
:10439000811110925A0280911801909119010C9488
:1043A000191608950C940817089582E084BD93E0CF
:1043B00095BD9AEF97BD80936E0008952FB7F8943E
:1043C00080917E0290917F02A0918002B091810243
:1043D0002FBF08952FB7F89460917E0270917F02ED
:1043E00080918002909181022FBF0895CF92DF9239
:1043F000EF92FF920F931F932FB7F89440917E0294
:1044000050917F0260918002709181022FBF6A01FA
:104410007B01EE24FF248C0120E030E0C016D106A1
:10442000E206F30610F4415051099A01281B390B9A
:10443000C9011F910F91FF90EF90DF90CF900895E9
:10444000CF92DF92EF92FF920F931F932FB7F894C2
:10445000C0907E02D0907F02E0908002F0908102B6
:104460002FBF97018601061B170B280B390BC616A9
:10447000D706E806F90618F0C901B80106C0C90157
:10448000B80161507109810991091F910F91FF9045
:10449000EF90DF90CF90089578941F920F920FB60F
:1044A0000F9211248F939F93AF93BF9380917E02BD
:1044B00090917F02A0918002B09181020196A11D8E
:1044C000B11D80937E0290937F02A0938002B093EF
:1044D0008102BF91AF919F918F910F900FBE0F906E
:1044E0001F9018950E942013F8942FEF87EA91E609
:1044F000215080409040E1F700C0000087E090EB41
:10450000DC018093C3029093C402A093C502B093D0
:10451000C6029CE088E10FB6F894A89580936000ED
:104520000FBE90936000FFCFCF930E940B170E94A5
:1045300065040E940C17C0E08C2F0E943705892B60
:1045400029F4CF5FC430C1F780E001C081E0CF9192
:1045500008951F920F920FB60F9211248F939F937D
:10456000AF93BF9380918202811113C080917E022C
:1045700090917F02A0918002B09181024196A11D8D
:10458000B11D80937E0290937F02A0938002B0932E
:104590008102BF91AF919F918F910F900FBE0F90AD
:1045A0001F9018958091B802843031F110928202E8
:1045B00020E488E190E00FB6F894A895809360001D
:1045C0000FBE209360000E94C60783B7817F84607E
:1045D00083BF83B7816083BF7894889583B78E7FCC
:1045E00083BF0FB6F894A89580916000886180938E
:1045F0006000109260000FBE08950E94541B0E943C
:10460000CE070C94E42980E090E00895AF92BF9229
:10461000CF92DF92EF92FF920F931F93CF937C0183
:10462000C0E0CC24C394D12C8C2F0E9437055C01B0
:1046300000E010E0C601002E02C0880F991F0A9406
:10464000E2F78A219B21892BB1F0602F7C2F80E03B
:104650000E94CA029C018E159F0559F0832F807E0F
:10466000932F907C11F0803A31F430E02E153F0505
:1046700011F481E009C00F5F1F4F0B301105D1F617
:10468000CF5FC43089F680E0CF911F910F91FF90EA
:10469000EF90DF90CF90BF90AF900895CF93DF93CE
:1046A000EC018CE290E00E940623882329F0CE01E1
:1046B000DF91CF910C94062380E0DF91CF91089594
:1046C000CF930E94C524811102C00E94A624C5E692
:1046D000C15049F00E9465048FE39CE90197F1F70E
:1046E00000C00000F5CF89E290E00E944E238111C6
:1046F0002BC18AE290E00E944E2381110E94A624E1
:1047000085E090E00E944E2381110E9472220E9457
:10471000D4210E94D02480937D0287E090E00E9403
:104720004E238823C1F18BE190E00E944E23882321
:1047300051F080917D0281FB222720F991E09227A0
:1047400090FB81F90FC08EE090E00E944E238823F9
:1047500061F080917D0282FB222720F991E092276F
:1047600090FB82F980937D0216C080E190E00E9468
:104770004E2390917D02882341F093FB222720F95C
:1047800081E0822780FB93F904C0892F809580FB0C
:1047900090F990937D0280917D020E94D4240E9422
:1047A000E2248093C10280EE90E00E944E23882391
:1047B00041F08091C102982F909590FB80F98093F1
:1047C000C10289E390E00E944E23882359F0809132
:1047D000C10281FB222720F991E0922790FB81F909
:1047E0008093C10282EE90E00E944E23882359F00C
:1047F0008091C10282FB222720F991E0922790FB51
:1048000082F98093C10286EE90E00E944E238823B5
:1048100059F08091C10283FB222720F991E0922771
:1048200090FB83F98093C10283EE90E00E944E23B7
:10483000882359F08091C10284FB222720F991E05E
:10484000922790FB84F98093C10285E390E00E9457
:104850004E23882359F08091C10285FB222720F93D
:1048600091E0922790FB85F98093C10281E390E06B
:104870000E944E23882359F08091C10286FB222793
:1048800020F991E0922790FB86F98093C10281E1A3
:1048900090E00E944E23882359F08091C10287FB4B
:1048A000222720F991E0922790FB87F98093C1029B
:1048B0008091C1020E94E6248091C10287FB882773
:1048C00080F98093170187E290E00E944E23C82F61
:1048D0008EE190E00E944E238111C2608FE190E052
:1048E0000E944E238111C46080E290E00E944E231A
:1048F0008111C86081E290E00E944E238111C06165
:1049000082E290E00E944E238111C06283E290E037
:104910000E944E238111C06484E290E00E944E23E5
:10492000882311F0C06802C0CC2329F08C2F0E948C
:10493000DD246C2F03C00E94D924682F70E080E032
:1049400090E0CF910C946B1FCF9108956DEE7EEFA8
:1049500080E090E00E945A2C60E082E090E00E94AB
:104960004C2C60E083E090E00E944C2C60E084E0FE
:1049700090E00E944C2C60E085E090E00E944C2C7E
:1049800060E086E090E00C944C2C80E090E00E9487
:10499000282C21E08D3E9E4F09F020E0822F0895C3
:1049A00082E090E00C941A2C682F82E090E00C9446
:1049B0004C2C83E090E00C941A2C682F83E090E05C
:1049C0000C944C2C84E090E00C941A2C682F84E01A
:1049D00090E00C944C2C86E090E00C941A2C682FFC
:1049E00086E090E00C944C2C8091870280FF0BC0F5
:1049F00060911D0185E0689FB00111247595679550
:104A0000759567952BC081FF09C060911D0185E0F8
:104A1000689FB00111247595679520C082FF07C07B
:104A200060911D0185E0689FB001112417C090912D
:104A300088029923D1F060911C01961788F7209184
:104A40001D0185E0289F90011124929FA001939F52
:104A5000500D112470E0CA010E94002C60387105CD
:104A600040F46115710539F002C065E070E0862FF1
:104A700008958FE7089581E008958091870280FF6F
:104A800008C060911B0170E07595679575956795F5
:104A900021C081FF06C060911B0170E0759567958C
:104AA00019C082FF04C060911B0170E010C090919A
:104AB00088029923C1F060911A019617A0F780919E
:104AC0001B01899FC001112470E00E94002C6038F6
:104AD000710528F46115710521F0862F08958FE77F
:104AE000089581E0089561E070E0F4CF803F21F403
:104AF0000E94F424819504C0813F29F40E94F4248B
:104B000080938B020895823F21F40E94F4248195C2
:104B100004C0833F29F40E94F42480938A020895FC
:104B2000893F19F40E943D2505C08A3F31F40E9457
:104B30003D25819580938C0208958B3F21F40E943E
:104B40003D25819504C08C3F29F40E943D2580932A
:104B50008D020895843F21F480918902816017C0FD
:104B6000853F21F480918902826011C0863F21F443
:104B70008091890284600BC0873F21F48091890273
:104B8000886005C0883F31F48091890280618093FC
:104B9000890208958D3F21F48091870281600BC0C6
:104BA0008E3F21F480918702826005C08F3F29F4F7
:104BB000809187028460809387020895803F39F452
:104BC00080918B0287FF6CC010928B0269C0813F7D
:104BD00029F480918B021816BCF362C090918A026E
:104BE000823F29F497FF5CC010928A0259C0833F2C
:104BF00019F41916CCF354C0893F41F480918C020A
:104C000018160CF04DC010928C024AC08A3F29F44D
:104C100080918C0287FF44C0F6CF8B3F39F480919E
:104C20008D0287FF3DC010928D023AC08C3F29F45F
:104C300080918D021816BCF333C0843F21F480911B
:104C400089028E7F17C0853F21F4809189028D7F74
:104C500011C0863F21F4809189028B7F0BC0873F72
:104C600021F480918902877F05C0883F31F48091CB
:104C700089028F7E8093890213C08D3F21F4809139
:104C800087028E7F0BC08E3F21F4809187028D7F3B
:104C900005C08F3F29F4809187028B7F8093870224
:104CA00080918A0281110EC080918B0281110AC00D
:104CB00080918C02811106C080918D02811102C009
:104CC00010928802089589E892E00E9424160E94BA
:104CD000DE21909384028093830208950F931F93A3
:104CE000CF93DF9380918502909186020E94F621F6
:104CF0000B97A8F18091B101882389F106EB11E0AF
:104D0000C4E0F80181918F01882351F08C2F0E941B
:104D1000E8200E94AB218C2F0E942A210E94AB2107
:104D2000CF5FC63471F78091B201882391F08091F2
:104D3000890281608093890289E892E00E942416AA
:104D4000809189028E7F8093890289E892E00E9497
:104D500024160E94DE219093860280938502809122
:104D60008302909184020E94F621AC019091880206
:104D7000992321F020911E0130E006C020911F01EF
:104D8000FAE02F9F900111244217530708F486C0C0
:104D900080918A02C0918B02D0918C0210918D0279
:104DA000811107C0C11176C0D11174C0111172C038
:104DB00075C09F3F19F09F5F90938802181624F4E6
:104DC0000E94F42480938A0280918A0287FF05C0A2
:104DD0000E94F424819580938A021C1624F40E9478
:104DE000F42480938B0280918B0287FF05C00E9480
:104DF000F424819580938B0260918A02662331F1BD
:104E0000C0918B02CC2311F1062E000C770B880B7E
:104E1000990B0E94CA2A23E333E343E35FE30E9432
:104E2000572B0E94922A60938A026C2FCC0F770B2B
:104E3000880B990B0E94CA2A23E333E343E35FE321
:104E40000E94572B0E94922A60938B021D1624F415
:104E50000E943D2580938C0280918C0287FF05C0C3
:104E60000E943D25819580938C02111624F40E94A6
:104E70003D2580938D0280918D0287FF05C00E94A1
:104E80003D25819580938D02DF91CF911F910F91E8
:104E90000C9463269F3F09F08ECF96CFDF91CF9180
:104EA0001F910F910895E9E8F2E085E0DF011D927E
:104EB0008A95E9F71092880210928702089583304C
:104EC00081F128F4813059F08230D1F00895853095
:104ED00009F449C0B8F1863009F456C008958091AC
:104EE0001F01262F30E0280F311D2F3F310524F4FC
:104EF000680F60931F0108958FEF80931F0108953D
:104F000080911E01262F30E0280F311D2F3F3105E3
:104F100024F4680F60931E0108958FEF80931E01A3
:104F2000089580911D01262F30E0280F311D2F3F5D
:104F3000310524F4680F60931D0108958FEF80936D
:104F40001D01089580911C01262F30E0280F311D8E
:104F50002F3F310524F4680F60931C0108958FEFF3
:104F600080931C01089580911B01262F30E0280FAB
:104F7000311D2F3F310524F4680F60931B01089504
:104F80008FEF80931B01089580911A01262F30E046
:104F9000280F311D2F3F310524F4680F60931A014B
:104FA00008958FEF80931A010895833011F128F44A
:104FB000813049F0823091F00895853081F120F1FF
:104FC0008630C1F1089580911F01681720F4861B77
:104FD00080931F01089510921F01089580911E0172
:104FE000681720F4861B80931E01089510921E01FD
:104FF000089580911D01681720F4861B80931D0180
:10500000089510921D01089580911C01681720F4E5
:10501000861B80931C01089510921C0108958091B5
:105020001B01681720F4861B80931B0108951092C2
:105030001B01089580911A01681720F4861B809344
:105040001A01089510921A0108950F931F938B313E
:1050500009F475C0A0F58E3009F484C0C0F487301F
:1050600009F462C068F4863009F0AFC080917D0217
:10507000817F8E7F80937D0281E080938F02A6C026
:10508000883009F44AC08B3009F49DC09EC081313C
:1050900009F472C068F4803109F097C080917D02F4
:1050A00083FB222720F991E0922790FB83F950C0DF
:1050B000863109F488C0893109F485C086C08533FA
:1050C00009F468C068F4873209F464C028F48E31AA
:1050D00008F47BC08D5164C0893209F45BC075C08F
:1050E000833438F48A3308F05AC0883309F46BC02B
:1050F0006CC0833409F44EC0883409F066C00E9445
:10510000541B0FEF13ED20E3015010402040E1F756
:1051100000C000000E94722256C00E94D0240E944B
:10512000E2240E94EB244FC090917D02892F817070
:1051300090FF12C0917F9E7F90937D0247C0809127
:105140007D0281FB222720F991E0922790FB81F9D3
:1051500080937D029923B9F180917D0281608093D3
:105160007D0231C080917D0282FB222720F991E0EF
:10517000922790FB82F9ECCF0E94541B0E940816E4
:105180008C50914001F59091170181E0892780931F
:10519000170119C061E070E080E090E010C0895311
:1051A00041E050E060E070E08A019B0104C0000F24
:1051B000111F221F331F8A95D2F7C901B8010E941F
:1051C0006B1F0E94541B81E001C080E01F910F9172
:1051D000089580E00895CF93C82F80918F02813089
:1051E00069F018F08230C9F184C0E0911801F091A3
:1051F00019018081823209F07EC007C0E091180158
:10520000F09119018081823261F48C2F0E94130F7A
:10521000811104C08C2F0E9425281DC081E090E0E0
:105220001AC08C2F0E94E928811114C0C43179F072
:1052300048F4CB3079F0C03109F061C082E080934E
:105240008F0208C0C93219F0C83321F058C010923B
:105250008F0255C081E0817054C0C93291F120F5B0
:10526000C43179F1B0F4C73009F047C08EE18093C2
:105270001F0182E380931E018AE080931D0184E177
:1052800080931C0188E080931B0188E280931A01BF
:1052900034C0CE51C63088F5EC2FF0E0EC5CFE4F08
:1052A000808180938E0229C0CE34E9F020F4CB3483
:1052B00021F56AE013C0C13579F0C235F1F461E03F
:1052C0000DC080918E02882319F010928E0215C0B5
:1052D00081E080938F0215C061E006C080918E024C
:1052E0000E945F270AC06AE080918E020E94D52743
:1052F00004C010928F0280E004C081E002C080E010
:10530000AACFCF910895E1E8F0E0808188608083A2
:105310008081816080838FB7F89494EF90938900A7
:1053200094E2909388008FBF0895EFE6F0E08081CB
:10533000826080830895EFE6F0E080818D7F808336
:1053400008958093920208951F920F920FB60F92C4
:1053500011242F933F934F935F936F937F938F937A
:105360009F93AF93BF93EF93FF9380919302882312
:10537000C1F0809191028F5F80939102909192028F
:10538000981778F410929102E0919002F0E0EB53BC
:10539000FC4F84910E941F07809190028F5F809341
:1053A00090020E946C07FF91EF91BF91AF919F9186
:1053B0008F917F916F915F914F913F912F910F90BE
:1053C0000FBE0F901F9018950E94C524811102C036
:1053D0000E94A6240E94EB248093C202811102C085
:1053E00081E005C080FF02C0869501C080E00C947A
:1053F000ED068091C202982F9695292F30E0283033
:1054000031054CF49F5F990F8170892B81608093E7
:10541000C2020E94EF248091C20286950C94ED0690
:105420008091C20280FF1EC0982F9695292F30E0F0
:105430002230310594F09158990F8170892B809317
:10544000C2028E7F91E009F490E08091C20290FB4D
:1054500080F98093C2020E94EF248091C202869557
:105460000C94ED0608958091C202982F909591704A
:1054700090FB80F98093C202992339F0982F9E7F88
:1054800021F4817082608093C2028091C2020E94E6
:10549000EF248091C20280FF02C0869501C080E0A7
:1054A0000C94ED069091C202892F86958F5F8F77BD
:1054B0009170893028F4880F892B8093C20202C032
:1054C0009093C2028091C2028E7F91E009F490E035
:1054D0008091C20290FB80F98093C2020E94EF2467
:1054E0008091C20286950C94ED06880F9091C202BD
:1054F0009170892B8093C2028E7F91E009F490E035
:105500008091C20290FB80F98093C2020E94EF2436
:105510008091C20286950C94ED060E94052B08F43A
:1055200081E008950E94992A6894B1110C944C2B43
:1055300008950E94312B88F09F5798F0B92F992732
:10554000B751B0F0E1F0660F771F881F991F1AF06E
:10555000BA95C9F714C0B13091F00E944B2BB1E05D
:1055600008950C944B2B672F782F8827B85F39F05C
:10557000B93FCCF3869577956795B395D9F73EF407
:1055800090958095709561957F4F8F4F9F4F0895AF
:10559000E89409C097FB3EF49095809570956195CD
:1055A0007F4F8F4F9F4F9923A9F0F92F96E9BB2783
:1055B0009395F695879577956795B795F111F8CFFF
:1055C000FAF4BB0F11F460FF1BC06F5F7F4F8F4F6A
:1055D0009F4F16C0882311F096E911C0772321F060
:1055E0009EE8872F762F05C0662371F096E8862FF8
:1055F00070E060E02AF09A95660F771F881FDAF74F
:10560000880F9695879597F90895990F0008550F7B
:10561000AA0BE0E8FEEF16161706E807F907C0F038
:1056200012161306E407F50798F0621B730B840B40
:10563000950B39F40A2661F0232B242B252B21F41A
:1056400008950A2609F4A140A6958FEF811D811DBA
:10565000089557FD9058440F551F59F05F3F71F062
:105660004795880F97FB991F61F09F3F79F08795C9
:105670000895121613061406551FF2CF4695F1DF52
:1056800008C0161617061806991FF1CF86957105E2
:10569000610508940895E894BB2766277727CB0116
:1056A00097F908950E94052B08F48FEF08950E9442
:1056B0006A2B0C94DB2B0E94CD2B38F00E94D42B4C
:1056C00020F0952311F00C94C42B0C94CA2B1124B8
:1056D0000C944C2B0E94292B70F3959FC1F3950FCE
:1056E00050E0551F629FF001729FBB27F00DB11D66
:1056F000639FAA27F00DB11DAA1F649F6627B00DF6
:10570000A11D661F829F2227B00DA11D621F739FDE
:10571000B00DA11D621F839FA00D611D221F749FEC
:105720003327A00D611D231F849F600D211D822F33
:10573000762F6A2F11249F5750409AF0F1F088235A
:105740004AF0EE0FFF1FBB1F661F771F881F915087
:105750005040A9F79E3F510580F00C94C42B0C9447
:105760004C2B5F3FE4F3983ED4F38695779567958D
:10577000B795F795E7959F5FC1F7FE2B880F911DB1
:105780009695879597F9089597F99F6780E870E057
:1057900060E008959FEF80EC089500240A941616A7
:1057A000170618060906089500240A94121613060F
:1057B000140605060895092E0394000C11F488239D
:1057C00052F0BB0F40F4BF2B11F460FF04C06F5FB9
:1057D0007F4F8F4F9F4F0895AA1BBB1B51E107C0FE
:1057E000AA1FBB1FA617B70710F0A61BB70B881F71
:1057F000991F5A95A9F780959095BC01CD01089500
:1058000097FB072E16F4009407D077FD09D00E946D
:10581000EC2B07FC05D03EF4909581959F4F0895A1
:10582000709561957F4F0895EE0FFF1F0590F491DD
:10583000E02D0994F999FECF92BD81BDF89A992780
:1058400080B50895A6E1B0E044E050E00C94612CEE
:10585000A8E1B0E042E050E00C94612C262FF999C9
:10586000FECF92BD81BDF89A019700B4021639F0BF
:105870001FBA20BD0FB6F894FA9AF99A0FBE089590
:105880000396272F0E942F2C0E942E2C252F0E943A
:105890002F2C242F0C942F2C262FF999FECF1FBAD2
:1058A00092BD81BD20BD0FB6F894FA9AF99A0FBE49
:1058B000019608950E944C2C272F0C944D2CDC014E
:1058C000CB01FC01F999FECF06C0F2BDE1BDF89A0B
:1058D000319600B40D9241505040B8F70895F894B5
:0258E000FFCFF8
:1058E20005FF420D010E450D460D470D970FF20FB4
:1058F200CF0F9A0F9B0F01015B022808140A321E78
:10590200404D1B39850338031D03E40277029002E0
:0E591200A902C20201020304050607080900EB
:106800008800EA44E944E244040005000600070069
:10681000080009000A000B000C000D000E000F001C
:1068200010001100120013001400150016001700CC
:10683000180019001A001B001C001D001E001F007C
:10684000200021002200230024002500260027002C
:10685000280029002A002B002CA22D002E002F003A
:10686000300031003200330034003500380052006F
:10687000380039003A003B003C003D003E003F003C
:1068800040004100420043004400450046004700EC
:10689000480049004A004B004C004D004E004F009C
:1068A000500051005200530054005500560057004C
:1068B000580059005A005B005C005D005E005F00FC
:1068C000600061006200630064006500850067008D
:1068D000F450F550F650F750F850F950FA506F0058
:1068E0007000710072007300890087008A008B00BD
:1068F000E000E100E200E3002B00E5002CA1E7004E
:1069000001000100010001002D0001000100010053
:106910002000B640CD40B5402500010033003400D2
:1069200037003600260027001E0021002E0022001E
:106930002400F0A31F00300023002F0001000100FD
:10694000010001000100010001000100010001003F
:10695000310035004C0001002C0001000100010055
:106960000100010001000100010001003800E940C0
:10697000010001000100010001000100010001000F
:1069800001000100010001000100010001000100FF
:106990000100010001000100010001000100E240CE
:1069A000E600EA40010001000100010001000100D1
:1069B00001000100010001000100010001000100CF
